:03000000020C8966
:10080000020AA8E86480F8E933E83360110460F074
:10081000ED33EC337009E8FCE9FDEAFEEBFF22045E
:1008200060DED3EB9FEA9EE99DE8C2E78CF0C2F759
:1008300095F0400CE8CCF8E9CDF9EACEFAEBCFFB25
:10084000120A7385D0F05804700320D5B3E8047001
:10085000075002B2D5020AB292D5EC0460F7E4CC9C
:10086000C0E0C398F8603B94186008400DD0E0FBEE
:10087000020A8AE4FBFAC9FC8028E830E406E4C9ED
:10088000FBE4CAFCE830E305E4C9CACBFCE8540742
:100890006010F8C3E913F9EA13FAEB13FBEC13FC4D
:1008A000D8F130F52FC3E49CFCEF9BFFEE9AFEEDF0
:1008B00099FDD0E0FBEF4E4D4C701222DB03020A93
:1008C000AFEC2CFCEF33FFEE33FEED33FDED30E704
:1008D000EB020A8AEF2BFFEE3AFEED39FDD0E0FB8A
:1008E00050130BBB0003020AB2ED13FDEE13FEEF33
:1008F00013FFEC13FC020A8AEC4D6011E8497017F3
:10090000ED33EC3304600DE4FCFFFEFD22E933E837
:10091000330470F8020AA8120A7358046009E4CC80
:1009200024815006285009020AB2284003020AAF67
:10093000C0E0EB4A7044B98006D0E0FB020A9EEFAB
:100940004E701CBD8008EBFFEAFEE9FD80EBE98DEF
:10095000F0A4FEE5F00209E1E9CDF9EAFEEBFFEFD4
:1009600089F0A4FCE5F0CE89F0A42EFFE435F0CDAB
:1009700089F0A42DFEE435F08067EF4E7005BD8050
:10098000D780C3EF8BF0A4ACF0EE8BF0A42CFCE48A
:1009900035F0F8EF8AF0A42CE5F038FCE433CB8D89
:1009A000F0A42CFCE5F03BF8EE8AF0A42CFCE5F07A
:1009B00038F8E433CF89F0A42CFCE5F038CF3400CC
:1009C000CE89F0A42FFFE5F03EFEE433C98DF0A4FC
:1009D0002EFEE5F039CD8AF0A42FFFE5F03EFEE4CF
:1009E0003DFD33D0E0FB50070BBB000F020AB2EC19
:1009F0002CFCEF33FFEE33FEED33FD020A8A75F077
:100A000020800E75F010800575F0087D007E007F57
:100A1000003392D530D503120B3DEC334010EF3349
:100A2000FFEE33FEED33FDEC33FCD5F0ED22E5F0C7
:100A3000247EA2D513CC92E7CDCEFF22EDD2E7CD16
:100A400033EC3392D524814006E4FFFEFDFC22FC0A
:100A5000E4CFCECDCC24E0501174FF80EDC3CC1395
:100A6000CCCD13CDCE13CECF13CF0470F030D5DE66
:100A7000020B3DE9D2E7C933E833F892D5EDD2E76E
:100A8000CD33EC33FC5002B2D522EC30E7100FBF6F
:100A9000000C0EBE00080DBD00040BEB6014A2D5C7
:100AA000EB13FCED92E7FD2274FFFCFDFEFF22E458
:100AB00080F8A2D574FF13FC7D80E480EFBB0106B3
:100AC00089828A83E0225002E722BBFE02E3228968
:100AD000828A83E49322BB010689828A83F02250B2
:100AE00002F722BBFE01F322BC000BBE0029EF8DF2
:100AF000F084FFADF022E4CCF875F008EF2FFFEEA4
:100B000033FEEC33FCEE9DEC984005FCEE9DFE0FB1
:100B1000D5F0E9E4CEFD22EDF8F5F0EE8420D21C0C
:100B2000FEADF075F008EF2FFFED33FD4007985054
:100B300006D5F0F222C398FD0FD5F0EA22C3E49F58
:100B4000FFE49EFEE49DFDE49CFC22120E497FCC56
:100B5000120D857F44120D857FE87E03120FBF12B0
:100B60000E497FCC120D857FBE120D85120DEF8FC1
:100B700012120DEF8F0F7510008F11E51175110016
:100B8000F510E5124211E4AC10AD11120A03E4FBBA
:100B9000FA7980783D1208F88F0B8E0A8D098C083F
:100BA000E4FFFE7D207C41AB0BAA0AA909A808122C
:100BB00008F8E4FBFAF9783F120807120A3C8E1095
:100BC0008F117C007D64120AE88F0EAE10AF117C8D
:100BD000007D64120AE87E007F0ACFCDCFCECCCE56
:100BE000120AE88F0DAE10AF117C007D0A120AE8E0
:100BF0008D0C227F81120ECC8F197F83120ECC8F29
:100C00001A7F85120ECCA9077F87120ECCAB077F07
:100C100089120ECCAA077F8B120ECC8F1B7F8D12F0
:100C20000ECCE519C4540F2430F536E519540F24C1
:100C300030F537E51AC4540F2430F533E51A540F54
:100C40002430F534E9C4540F2430F530E9540F242E
:100C500030F531EBC4540F2430F529EB540F243018
:100C6000F52AEAC4540F2430F526EA540F2430F54F
:100C700027EFC4540F2430F523EF540F2430F5240C
:100C8000E51B540F2430F52C22787FE4F6D8FD754F
:100C9000813B020CD0020D15E493A3F8E493A3402A
:100CA00003F68001F208DFF48029E493A3F85407E7
:100CB000240CC8C333C4540F4420C8834004F456E2
:100CC000800146F6DFE4800B01020408102040801A
:100CD000901030E47E019360BCA3FF543F30E509DF
:100CE000541FFEE493A360010ECF54C025E060A81A
:100CF00040B8E493A3FAE493A3F8E493A3C8C582AD
:100D0000C8CAC583CAF0A3C8C582C8CAC583CADF1A
:100D1000E9DEE780BE120FDD120F72120E8D120B8C
:100D2000F37F98120FFA7BFF7A10795E120F447FDF
:100D300080120FFAE4F5187B007A0079301210491E
:100D4000C3E5189FE49E500E74302518F8E6FF1294
:100D50001015051880E17F90120FFAE4F5187B005A
:100D60007A007923121049C3E5189FE49E500E744F
:100D7000232518F8E6FF121015051880E1120B4B19
:100D8000120F9D8099751600751708EF139200EFEA
:100D9000C313FF300022C2A20515E5157002051429
:100DA000D2A2751400751508E515151570021514F5
:100DB000E515451470F28028C2A275140075150857
:100DC000E515151570021514E515451470F2D2A23B
:100DD0000515E515700205140515E51570020514D5
:100DE000E517151770021516E5174516709D227543
:100DF0001600751708C2A20515E51570020514D274
:100E0000A20515E515700205140515E51570020516
:100E100014A2A29200751400751508E51515157039
:100E2000021514E515451470F2A200E433FEC43334
:100E300033335480FDEFC3134DFFE51715177002D0
:100E40001516E517451670AD22C2A275140075156A
:100E500050E515151570021514E515451470F2D2FC
:100E6000A2751400751504E515151570021514E525
:100E700015451470F220A2FD751400751546E51590
:100E8000151570021514E515451470F222E4FD7F66
:100E90008E120F097D247F80120F097D577F8212E9
:100EA0000F097D207F84120F097D017F86120F09B3
:100EB0007D127F88120F097D047F8A120F097D152C
:100EC0007F8C120F097D807F8E020F09C290C29124
:100ED000D290E4FCEF30E004D2928002C292EFC3E1
:100EE00013FFD29100C2910CBC08E9E4FC309204DB
:100EF0007D808002E4FDEEC3134DFED29100C291CD
:100F00000CBC08E9C290AF0622C290C291D290E414
:100F1000FEEF30E004D2928002C292EFC313FFD200
:100F20009100C2910EBE08E9E4FEED30E004D292D9
:100F30008002C292EDC313FDD29100C2910EBE0891
:100F4000E9C290228B198A1A891BAB19AA1AA91B0C
:100F5000120ABD6013051BE51B7002051A14F91275
:100F60000ABDFF12101580E2AB19AA1AA91BE402F0
:100F70000AD67F88120FFAE4F513AF13EF3395E02A
:100F8000FE74792FF58274103EF583E493FF1210FE
:100F9000150513C3E5136480948640DE227F881212
:100FA0000FFAE50E2430FF121015E50D2430FF1264
:100FB00010157F2E121015E50C2430FF021015D3EA
:100FC000EF9400EE940040147D737C00ED1D7001E1
:100FD0001CED4C70F7EF1F70E61E80E3227F147E3D
:100FE00000120FBFC2B67F30120FFA7F0C120FFA39
:100FF0007F01120FFA7F06020FFAC2B5C2B6C2B461
:101000008F807F017E00120FBFD2B47F017E00125D
:101010000FBFC2B422D2B5C2B4C2B68F807F017EE8
:1010200000120FBFD2B47F017E00120FBFC2B422E4
:1010300009302D2D3A2D2D3A2D2D000B232D2D2D40
:101040002D2D2D2D282D290000E4FFFE120ABD6054
:101050000C0FEF70010E09E970F20A80EF225B734A
:1010600065745D2020202020205B6469735D00EFA3
:101070001F70011E144E70F72220202020A1E600D0
:00000001FF
